:020000040800F2
:1000000018100020A5010008F7320008892C00080C
:10001000F53200089D0D0008513B0008000000006B
:10002000000000000000000000000000CB360008C7
:100030005D0E000800000000F9320008CD3600080F
:10004000BF010008BF010008BF010008BF01000890
:10005000BF010008BF010008BF010008BF01000880
:10006000BF010008BF010008BF010008BF01000870
:10007000BF010008BF010008BF010008BF01000860
:10008000BF010008BF010008BF010008BF01000850
:10009000BF010008BF010008BF010008BF01000840
:1000A000BF010008BF010008BF010008BF01000830
:1000B0005D370008BF01000869370008BF0100086C
:1000C000BF010008BF010008BF010008BF01000810
:1000D000BF010008453B0008BF010008BF01000840
:1000E000BF010008BF010008BF01000800F002F8CE
:1000F00000F049F80AA090E8000C82448344AAF179
:100100000107DA4501D100F03EF8AFF2090EBAE876
:100110000F0013F0010F18BFFB1A43F0010318473B
:100120000880000028800000103A24BF78C878C1F9
:10013000FAD8520724BF30C830C144BF04680C60ED
:10014000704700000023002400250026103A28BF35
:1001500078C1FBD8520728BF30C148BF0B60704739
:10016000662907F0BC86002070471FB500F0D0FB61
:1001700004000020002106F0FDFEE06000F03CF9E4
:100180001FBD10B510BD00F0D0FC1146FFF7EDFF0C
:1001900006F0FAF900F0EEFC03B4FFF7F2FF03BC3F
:1001A00000F0B0FB0948804709480047FEE7FEE73A
:1001B000FEE7FEE7FEE7FEE7FEE7FEE7FEE7FEE717
:1001C00004480549054A064B7047000059370008A6
:1001D000ED000008180A002018100020180C00205C
:1001E000180C00200FB41CB5074B06AA7B446946C7
:1001F0000090059800F031FB0020694600F040FBBC
:100200001CBC5DF814FB0000910600002DE9F047CE
:100210004FF0000A89460446C0F820A02046E16855
:100220008847002876D0252806D0D4E901219047B8
:10023000206A401C2062F1E7E168204600258847DB
:10024000C4F81CA006460027C4F818A02A2E09D01E
:10025000304606F029FE38B304EB8708303EC8F874
:10026000186019E059F8041B204604EB87029161DD
:10027000E1688847012F064618D1E069002820DA96
:1002800025F020051DE0D8F8180000EB800006EBF3
:1002900040003038C8F818002046E1688847064614
:1002A00006F002FE0028EED1012F0AD02E2E08D132
:1002B0002046E16888477F1C0646022F45F020054E
:1002C000C4DBA069002803DA404245F00105A061C3
:1002D000E80701D025F01005B6B1A6F141001928B4
:1002E00002D8203645F400654A463146204625604E
:1002F0004D46FFF735FF58B1012806D0ED1D25F01A
:10030000070000F1080989E704E005F1040985E721
:1003100030468AE7206ABDE8F087032A40F2308041
:1003200010F0030C00F0158011F8013BBCF1020F36
:10033000624498BF11F801CB00F8013B38BF11F8B7
:10034000013BA2F1040298BF00F801CB38BF00F8CE
:10035000013B11F0030300F0A382083AC0F00880CB
:1003600051F8043B083A51F804CBA0E80810F5E72F
:10037000121D5CBF51F8043B40F8043BAFF3008012
:10038000D20724BF11F8013B11F801CB48BF11F887
:10039000012B24BF00F8013B00F801CB48BF00F857
:1003A000012B70474FF0000200B513469446964665
:1003B000203922BFA0E80C50A0E80C50B1F1200178
:1003C000BFF4F7AF090728BFA0E80C5048BF0CC026
:1003D0005DF804EB890028BF40F8042B08BF704784
:1003E00048BF20F8022B11F0804F18BF00F8012BF6
:1003F000704770477047704770B5064C7C44064D97
:100400007D4403E0206820448047241DAC42F9D19C
:1004100070BD0000647D0000647D000010B500F038
:100420007BFA006810BD10B5044600F075FA046050
:1004300010BD2DE9FF4F0C461E464FF0FF378BB025
:10044000D2E90001DDF860800A908A46C1F30A55BE
:1004500005B93D46002108464FF00000BAF1000FF3
:1004600000F4400005DA00EB80004FF4400101EA9F
:1004700050004FEA9059B9F1010F00DDB9460A98D2
:1004800050EA4A000ED044F61050A5F2FF3545431D
:100490002F14B8F1000F1ED07542291E1EDDC9F1C0
:1004A00000021CE0B8F1010F4FF0000001D0302134
:1004B00003E0F24305E02154401CB042FBDB304630
:1004C0000022002121540B99C1F80880C1E90020C5
:1004D0000FB0BDE8F08FBD1B6D1CDEE74A4600DAA9
:1004E000694206A800F0A2FA06AB93E8070003AB46
:1004F00083E8070050460A9906F0F6F88DE80700F1
:10050000A0F500501F3800900398002D0ADD42F23C
:100510001F014A460844002303A90390684606F0D9
:100520005FFB09E0A0F500504A461F38002303A9ED
:100530000390684606F069FB8DE807000004000C94
:1005400003D04FF0FF30410800E01046B8F1000F33
:1005500003D00022009215461EE0751E05D400F05F
:10056000DFF9303262556D1EF9D5B34601220843DA
:1005700002D000227F1C04E02078302801D1002224
:100580007F1E002A099784D01DE0112D07DA00F0A4
:10059000C7F9303262556D1C50EA0102F5D10843AB
:1005A00002D00098C8B10EE00021681E05E0235C6F
:1005B000625C63542254401E491C8142F7DBAB4607
:1005C000A81B401E0990002004F80B000B98099A04
:1005D000C0F80880C0E9002B7AE711264FF0000828
:1005E00057E72DE9F04F88460446D21D22F0070157
:1005F00091B0D1E90001CDE90A0106F03DFC0246C7
:100600000B98C00F01D02D2007E02068810701D58D
:100610002B2002E0202101EAC000032A099001D02A
:10062000072A05DB03464146204600F0BFF90BE1EF
:100630002078800601D5E06900E00620B8F1650F5A
:10064000814606D0B8F1660F18D0B8F1670F70D1A7
:1006500031E00020B9F1110F009001DB112301E01E
:1006600009F101030AAA01A90CA8FFF7E2FEDDE9DE
:100670000C70002609F10105834647E001204B4636
:1006800000904FF000470AAA01A90CA8FFF7D1FE7D
:10069000DDE90DB00C995D46002610B909F10100A5
:1006A0000D18B9EB050003D4C0F1FF3609F10105BF
:1006B000A5EB09002BE0B9F1010F01DA4FF00109B8
:1006C0000020B9F1110F0090484601DD112300E030
:1006D00003460AAA01A90CA8FFF7ABFEDDE90C70DE
:1006E0004D4600268346207800070AD4AB4500DA41
:1006F0005D4601A8012D04DD411911F8011C3029C6
:1007000007D04F4502DA17F1040F04DA01208246C0
:100710000FE06D1EEEE7002F02DCED1B3E4403E010
:10072000781CA84200DD7D1CB81B00F1010A4FF0C7
:1007300000472078000703D4AA4501DB4FF0FF3AB9
:100740000021B7F1004F0DF143088DF8431024D07C
:1007500002202B23002F01DA7F422D230A21021EC3
:10076000A0F1010000DC5FB197FBF1FC97FBF1F217
:1007700001FB1C7C17460CF1300C08F801CDEEE7AC
:10078000A8F1010003702188090501D5452100E089
:100790006521A0F1010800F8011C09980FA9A1EB3F
:1007A0000807FF1D00B10120411901EBEA70A169A2
:1007B0003844081A401EA0612078C00602D42046A2
:1007C000AFF30080099828B1D4E901219047206A4D
:1007D000401C20622078C00622D52046AFF300805E
:1007E0001EE0002E04DBB34502DD01A8805D00E0C1
:1007F0003020D4E901219047206A401C2062761CF9
:10080000AAF101005FEA000A0AD100F081F8C0688D
:100810000168405CD4E901219047206A401C2062B5
:10082000281EA5F10105DCDC07E0D4E9012118F858
:10083000010B9047206A401C2062381EA7F1010777
:10084000F3DC2046AFF30080032011B041E6000046
:1008500001694A1C02610878704700B58FB0CDE984
:1008600001310021059105497944CDE90310114674
:100870006846FFF7CBFC0FB000BD0000E5FFFFFFAF
:100880000A6802F8010B0A60704710B5002000F0FA
:100890003FF9FFF776FCBDE81040012000F032B8C8
:1008A00010B5203AC0F00B80B1E81850A0E81850FD
:1008B000B1E81850A0E81850203ABFF4F5AF5FEA4D
:1008C000027C24BFB1E81850A0E8185044BF18C9F2
:1008D00018C0BDE810405FEA827C24BF51F8043B99
:1008E00040F8043B08BF7047D20728BF31F8023BED
:1008F00048BF11F8012B28BF20F8023B48BF00F881
:10090000012B704701491820ABBEFEE7260002000C
:10091000004870471801002000487047F800002088
:1009200030B5B0F10A0271F100034FEA900E4EEAC1
:10093000817EB0EB0E0061EB91014FEA101E4EEA92
:10094000017E10EB0E0041EB11114FEA102E4EEA22
:10095000016E10EB0E0041EB11214FEA104E4EEAF2
:10096000014E10EB0E0041EB1141401841F1000126
:100970004FEAD00040EA41704FEAD1014FEA8104CA
:1009800044EA907410EB800544EB01046D1944EBCC
:100990000404521BA3414FF0000348BF0A3200D5A4
:1009A00030BD401C41F1000130BD00002DE9F04197
:1009B0001F46044603260168072A01F4006004DB91
:1009C00008B116A505E016A503E008B115A500E0DD
:1009D00015A521F010002060A069C01EA0610FB114
:1009E000401EA0612046AFF300804FB1D4E9012141
:1009F00038469047206A401C2062C01C206206E0F6
:100A0000206AFAE7D4E9012115F8010B9047761E18
:100A1000F8D22046AFF30080BDE8F0814E414E0091
:100A20006E616E00494E4600696E66002DE9F04722
:100A3000814616468AB0354878440DC88DE80D00C9
:100A400032487844801C03AC0DC884E80D0041F6A0
:100A50009B300844372190FBF1F290FBF1F5A5F1B2
:100A6000800501FB12041B3C02D56442012000E01A
:100A70000020DFF898A080460027FA44AAF1BE0AB9
:100A80000EE0E0070AD03246684607EB4701012333
:100A90000AEB810106F0B9F88DE8070064107F1CAD
:100AA000002CEED1194F7F44AE3F19E0E80715D076
:100AB00007EB04100DF1180A90E80E008AE80E000A
:100AC000C068F04201D1981908903246012306A966
:100AD00003A806F09AF803AB83E807006D10641CC6
:100AE000002DE3D14FF0010332466946B8F1000F03
:100AF00003A802D006F074F801E006F086F8C9E910
:100B00000001C9F808200AB0BDE8F087247500008C
:100B100010B500F03DF8BDE8104000F034B800001A
:100B200000487047F800002070477546FFF7F8FF4F
:100B3000AE4605006946534620F00700854618B0CA
:100B400020B5FFF73DFBBDE820404FF000064FF019
:100B500000074FF000084FF0000BAC46ACE8C009AE
:100B6000ACE8C009ACE8C009ACE8C00921F0070155
:100B70008D46704710B50446AFF300802046BDE8AF
:100B80001040FFF709BB002801D0FFF7BBBE70473C
:100B900010B5002102A000F053F8012010BD0000A4
:100BA000534947414252543A2041626E6F726D611F
:100BB0006C207465726D696E6174696F6E000000FF
:100BC0004FF0013C50F8042B51F8043B9A4221D1DC
:100BD000A2EB0C03934313EACC1317D150F8042B68
:100BE00051F8043B9A4215D1A2EB0C03934313EA4C
:100BF000CC130BD150F8042B51F8043B9A4209D185
:100C0000A2EB0C03934313EACC13DBD04FF00000AC
:100C1000704700BFD01A01BAB1FA81F101F0180192
:100C200022FA01F0CB40DBB2C0B2C01AC1F1200100
:100C30002CFA01F3D11A914311EAC311E6D170479E
:100C400070B505460C460A2000E06D1C00F011F856
:100C500035B128780028F8D102E0641C00F009F8CA
:100C600014B120780028F8D1BDE870400A20AFF315
:100C7000008008B569468DF800000320ABBE08BDB2
:100C8000B0B5044600688168C9071DD0816821F0AD
:100C90000101816000F00CFD054620688068C007F6
:100CA00012D000F005FD401B0328F6D320688068B1
:100CB000C007F2D0A06A40F01000A062E06A40F0E5
:100CC0000100E0620120B0BD0020B0BDBCB504460B
:100CD0000020019021688A68D2072DD1886840F0F1
:100CE00001008860D448D5490068B0FBF1F001E00C
:100CF00001980138019001980028F9D100F0D8FC42
:100D0000054620688068C00715D100F0D1FC401B63
:100D10000328F6D320688068C007F2D1A06A40F0AB
:100D20001000A062002084F82400E06A40F0010076
:100D3000E062012000E0002002B0B0BD70B5164EA8
:100D400006F10804204600F0DBFA054690B920467B
:100D50000A2100F02FFA20B10546204600F02EFBB4
:100D600008E0204600F06CF93060204600F0C8FA38
:100D7000054608B1284670BD20460A2100F01AFA3F
:100D80000028E9D1204600F05BF970602046BDE8FC
:100D9000704000F013BB00BF58010020FEE70000C8
:100DA000B0B52D4D0446A86808B900F037F868685A
:100DB0001949002260430C680B68A342FCD06FEA1B
:100DC00004051A4488BF65421C462A44824228BF53
:100DD000B0BDF1E770B510481F4C06686568A068A3
:100DE00008B900F01BF8E068864212D0C143864281
:100DF000E66088BF4142701821690844854220613D
:100E000007D8B0FBF5F101FB1500206160690844CB
:100E10006061606970BD00BF041000E080B50C48DF
:100E2000016841F0807101600A4800214160016859
:100E300041F00101016001F0C9F807497F4A0860EB
:100E40000868B0FBF2F0486001208860002080BD97
:100E5000FCED00E0001000E00C0200207047EFF312
:100E6000108072B6FEE700007CB5044600200190B9
:100E700094F82400012801D1022559E0012084F8CA
:100E800024002046FFF7FCFE2046FFF71FFF054623
:100E900000284AD1A06A41F2021188430230A062C0
:100EA00065480668022000F0FFFEB6FBF0F0400047
:100EB00001E001980138019001980028F9D12068DB
:100EC000816841F00801816000F0F2FB064620686D
:100ED0008168090709D500F0EBFB801B0B28F6D3CE
:100EE000206880680007F2D513E0816841F00401B2
:100EF000816000F0DDFB06462068806840070DD564
:100F000000F0D6FB801B0B28F6D3206880684007D2
:100F1000F2D5012510206FF0120102E001206FF0E0
:100F20000301A26A11400843A062002084F8240053
:100F3000284602B070BD00BF78B50022009290F83C
:100F40002420012A01D1022158E0012280F8242026
:100F5000D0F800C04B686246062B05D852F8344FD3
:100F600003EB83035D1F0EE00C2B06D852F8304FC5
:100F700003EB8303A3F1230505E003EB830352F89E
:100F80002C4FA3F141050B681F2603FA05FE06FA54
:100F900005F5092B24EA05044EEA040616601CD95F
:100FA00003EB4306DCF80C20896807251E3EB140A0
:100FB00005FA06F6B2431143CCF80C1023F00101F8
:100FC000102917D11B49A1F10802944519D0816A53
:100FD00041F02001816201210DE003EB4302072370
:100FE000DCF810608968934026EA030391401943B6
:100FF000CCF810100021002280F82420084601B00F
:1010000070BD0A681202F5D40A68102B42F400027F
:101010000A60EFD1B449094A0968B1FBF2F101EB6A
:101020008101490001E000990139009100990029EE
:10103000F9D1DFE7082401401800002040420F00EA
:101040000068C06C70470000C8B3B0B505460446E0
:1010500055F8280F30B9002084F82400E0622046BB
:1010600000F07AF82046FFF70BFEA26AA16A40BBA7
:1010700012F0100025D141F2021021EA00000230E6
:10108000A062D4E90101E269237B10434A1EB1F555
:10109000807FB2FA82F240EA430C4FEA52100A46CD
:1010A00018BF0202207D012816D173B1A06A40F05A
:1010B0002000A062E06A40F00100E0620CE0012044
:1010C000704741F0100101203CE0A0691E4B03EB8A
:1010D0004030104340F400622368B1F5807F5868C7
:1010E00020F4694040EA0200184A5860986800EA13
:1010F000020040EA0C00986001D0012904D1206967
:10110000134901EB005100E00021D86A20F470007F
:1011100008431049D86298680840604506D100200D
:101120000122E062A16A62F301010BE0A06A40F0D3
:10113000100020F00200A06254F82C0F40F00101D2
:10114000012025462960B0BD00E0FFFFFDF7E1FF6B
:101150000000F0FFFE0E1FFFFEB501460020CDE9A6
:101160000400CDE902001148096800F5E0529142FF
:1011700019D10F490A6842F400720A600A6802F441
:1011800000720192019A0A6842F004020A6009683A
:1011900001F00401019101990321039118210291A9
:1011A00002A900F0A7F906B080BD00BF0008014009
:1011B000181002402DE9FC4100260D460446019618
:1011C00000F076FA804620688168C90528D4416815
:1011D000C90503D4C16A11F4700F29D042480668CA
:1011E000022000F061FD2168404BB6FBF0F00A6977
:1011F0001A4203D1CA683E4B1A422BD00A693D4BB2
:101200001A4203D1CA683C4B1A422ED00F693B4B9D
:10121000FC221F422AD1C968194208BF542225E086
:1012200084F82460A06A40F02000A062012057E00A
:101230006F1C016889072FD4002FFAD035B100F058
:1012400037FAA0EB08012068A942F2D901688907A2
:10125000EFD43DE00B69274E2922334206D1C968FD
:10126000254B194208BF142200E0542202FB00F76C
:101270006E1C0DE04EB12DB100F01AFAA0EB080083
:10128000A84202D90198B84222D3019801300190B6
:101290000198B842EED320686FF012010160A16A94
:1012A00041F40071A162806800F46020B0F5602F05
:1012B0000CD1207B50B9A06A20F48070A062A06A93
:1012C000C0045EBFA06A40F00100A062002007E0F9
:1012D000002084F82400A06A40F00400A0620320EB
:1012E00002B0BDE8F08100BF18000020244992241C
:1012F00024499200922449129224490049922400E0
:10130000B0B5044690F82400012804BF0220B0BD07
:10131000012084F824002046FFF7D8FC18B10021F2
:1013200084F82410B0BD2068A16A234D40F2013238
:10133000914305F57F7201F580719042A16205D05D
:10134000A16A21F48011A162416808E0296811F4C2
:10135000702FF5D0A16A41F48011A1622968490576
:1013600004D5A16A012363F30D31A162A16A0023B0
:10137000C9044FF0000144BFE16A21F0060184F87E
:101380002430E1626FF002010160816801F46021A4
:10139000B1F5602F05D1904207D1296811F4702F63
:1013A00003D0816841F4801102E0816841F4A0011A
:1013B00081600020B0BD00BF0424014010B5044688
:1013C00090F82400012804BF022010BD012084F8F9
:1013D00024002046FFF754FC28B9A16A41F201120B
:1013E00091430131A162002184F8241010BD90F8CE
:1013F0002110022912D1016801230A6822F00E028D
:101400000A600A6822F001020A60D0E90F1203FAAA
:1014100002F24A60002180F8213002E00421816359
:101420000121002280F820200846704780B590F8FE
:10143000211002291DD10368204A4FF0010C1968C0
:10144000934221F00E011960196821F00101196021
:10145000194912D01A4A934211D01A4A934210D015
:10146000194A934210D0194A934210D14FF4803256
:1014700015E00421816301211BE001220FE010220D
:101480000DE04FF480720AE04FF4805207E001F162
:10149000680E4FF08072734508BF4FF480120A60E7
:1014A000002180F8201080F821C0426B0AB19047DB
:1014B0000021084680BD00BF040002400800024031
:1014C0001C0002403000024044000240580002402C
:1014D000B0B5044600F0ECF805460548611C0078FC
:1014E00018BF044400F0E4F8401BA042FAD3B0BD9A
:1014F000000000202DE9FC4F594A04234FF0000B57
:101500004FF001084FF00F0E4FF0000900259042F8
:1015100008BF032300930A6832FA05F308BFBDE849
:10152000FC8F08FA05F73A4200F095804A68032AD2
:1015300016D9112A24D0122A26D04D4B9A4213D004
:101540004C4B9A4210D04C4B9A420DD04B4B9A4286
:101550000AD04B4B9A4207D04A4B9A4204D020E023
:10156000DFE802F00216191D8A6832B1012A4FF035
:10157000080914BF4761076113E04FF0040910E048
:10158000CA6802F104090CE0CA6802F10C0908E01B
:10159000D1F80C9005E0CA6802F1080901E04FF0AB
:1015A0000009082D5A46044628BF203A28BF0434B3
:1015B00026680EFA02F309FA02F226EA03031A4336
:1015C0002260CA79D20646D5284A0BF00C0C134685
:1015D000126842F001021A601A680EFA0CF302F067
:1015E000010201921F4A019CAC08A2F57E7656F8D2
:1015F000242022EA030A244A904208D0234A904237
:1016000007D0234A009B904208BF022302E0002338
:1016100000E0012303FA0CF242EA0A0246F8242011
:10162000104E114C4A68D302B36854BFBB433B43CE
:10163000B3609302236854BFBB433B4323609303CF
:10164000736854BFBB433B43D2037360326854BFDB
:10165000BA433A4332600BF1040B01355BE700BF3C
:1016600000140140000401400C0401401810024025
:1016700000001110000012100000211000002210C4
:10168000000031100000321000080140000C014041
:1016900000100140C26802EA0103914341EA03419C
:1016A00001617047002A08BF09040161704700000A
:1016B00001480068704700BF140A002070B560B38D
:1016C000044690F83D0028B9002084F83C002046EC
:1016D00000F004FA242084F83D002068016821F01D
:1016E00001010160016841F400410160016821F4D9
:1016F0000041016000F054FC4849494B0022494E2A
:1017000088424FF0000138BF0121984238BF0122C2
:101710006368B34238BF0A460AB1012070BD42492E
:10172000B342B0FBF1F221684D6825F03F0545EA70
:1017300002054D600D6A25F03F0C06D34FF49676F6
:1017400072434FF47A76B2FBF6F201324CF6FF7632
:10175000013842EA0C020A62CA6922EA060C334ADC
:10176000934209D85A00B0FBF2F001306FF31F30FA
:10177000042898BF042028E0A26842B119265E43DD
:10178000B0FBF6F6751C042666F31F3506E003EB86
:101790004306B0FBF6F6751C6FF31F352E0509D016
:1017A00052B119225A43B0FBF2F00422013062F325
:1017B0001F3008E0012008E003EB4302B0FBF2F029
:1017C00001306FF31F3040F4004040EA0C00C86164
:1017D0000868D4E9072320F0C000104348F2FF3224
:1017E0001843086088689043D4E9032318431043E2
:1017F0008860C868D4E9052320F0FF00104318432F
:10180000C860086840F001000860002020212064C2
:1018100084F83D10206384F83E0070BD80841E0073
:1018200000093D00A186010040420F00A086010092
:101830002DE9F04F85B0044600201F4616460D46A0
:101840000490FFF735FF814694F83D0020280CD125
:101850009F49204601221923CDF8009001F0B0FAEB
:1018600018B994F83C00012803D1022005B0BDE866
:10187000F08F0DF13808012298E8030184F83C202C
:1018800022681368DB0702BF136843F0010313608B
:10189000136823F40063136022223B4684F83D2042
:1018A000402284F83E2000222264618560628949DA
:1018B0003246608DE162294620852046CDE90089C7
:1018C00001F0FCF9002840F00181218D01290DD0A3
:1018D00011BB002003902068416903918169039145
:1018E0000399016841F40071016037E020680168E4
:1018F00021F480610160EFF3108072B60020039044
:10190000206841690391816903910399016841F459
:101910000071016062B621E020680229026813D1DB
:1019200042F400610160EFF3108072B60020039072
:10193000206841690391816903910399016821F449
:101940008061016062B609E042F4806101600021BB
:10195000039141690391806903900398208D5E4F44
:10196000DFF8DCA946F2A81B232595E086B2032EFA
:101970000AD8012E2BD1204641464A4601F0C4FA2E
:10198000002800F07C80A1E0204641464A4601F054
:10199000BBFA002840F09A8020680069616A0870EC
:1019A000606A2168421C6262208D01382085638D47
:1019B000013B63854B695B076ED580B2032802BF8C
:1019C000086820F480600860086910705BE02046B9
:1019D000394600224346CDF8009001F0F1F9022E7D
:1019E00017D1002872D1EFF3108072B62068016819
:1019F00041F4007101600069616A0870606A013039
:101A00006062608D01386085208D0138208562B666
:101A100035E000285AD12068016821F48061016016
:101A2000EFF3108072B620680069616A0870606A1E
:101A300001306062618D01396185218D0139218517
:101A4000DAF80010B1FBFBF1694304910499013904
:101A50000491049961B321684A695207F6D50A686E
:101A600042F400720A6009690170606A01306062C4
:101A7000208D01382085608D0138608562B6206830
:101A80000069616A0870606A01306062208D013807
:101A90002085618D0139618501047FF467AF2020C5
:101AA00084F83D00002084F83C0084F83E00DDE628
:101AB00000202021206384F83D1084F83E00216C32
:101AC00041F02001216462B684F83C000120CDE69B
:101AD000020010000000FFFF0400010010B586B0F6
:101AE0000021CDE90411CDE90211214900688842A5
:101AF0001ED02049884239D14B4C02A9206840F0C1
:101B000008002060206800F0080001900198122071
:101B10000390C0200290032005901748FFF7EAFCCD
:101B2000606840F400106060606800F400101BE022
:101B30003D4C02A9206840F008002060206800F0B9
:101B4000080001900198122003904FF44060029029
:101B5000032005900848FFF7CDFC606840F4800042
:101B60006060606800F480000190019806B010BDCC
:101B70000058004000540040000C01401B4803493D
:101B800000780A6810440860704700BF140A0020FB
:101B900080B50748016841F010010160032000F0A2
:101BA00073F80F2000F006F800F022F8002080BD46
:101BB0000020024070B50D4E04464FF47A71307823
:101BC000B1FBF0F0F4490968B1FBF0F000F0BCFBA8
:101BD00001250F2C08D838B94FF0FF3021460022DC
:101BE000002500F033F87460284670BD0000002026
:101BF00082B00D480222016841F0010101600168D4
:101C000001F0010101910199416841F08051416069
:101C1000406800F08050009000980448016862F32A
:101C20001A61016002B070471810024004000140C0
:101C3000002808DB00F01F010122400902FA01F12F
:101C4000014A42F82010704700E100E080B5144BD3
:101C50001B68C3F3022CBCF1030E8CF007034FF09A
:101C6000FF3C38BF4FF0000E042B28BF04230CFAB2
:101C700003F399430CFA0EF301FA0EF19A43114360
:101C8000BDE8804004F018BC05494FF6FF030A6820
:101C90001A4060F30A22034810430860704700BFEF
:101CA0000CED00E00000FA05012811D0022822D036
:101CB00010284ED128494A680868C00149D5C2F3A6
:101CC000834026A3D203185C24D4D54A50432AE08B
:101CD0002149086A00F44072B2F5407F2CD0B2F579
:101CE000007F30D0B2F5807F33D1800744BF4FF4FE
:101CF000004070472DE080B500F05CF916490222E3
:101D00004968C1F3813102EB4101B0FBF1F0BDE85C
:101D1000804070474A6815A3C2F340429A5CBA4BB0
:101D2000B3FBF2F250434968490248BF7047400094
:101D30000321B0FBF1F0704708684FF224418003A3
:101D400001EAE0707047486A800744BF49F64040A6
:101D500070470020704700BF0010024002030405D6
:101D6000060708090A0B0C0D0E0F101001020000E7
:101D70002DE9FC4104460078A24EC00756D0B06958
:101D8000C0000BD4B0694FF0010840F08050B06142
:101D9000B06900F080500190019801E04FF0000818
:101DA0002D4F3868C00510D4386840F48070386012
:101DB000FFF77EFC05463868C00506D4FFF778FCBF
:101DC000401B6428F7D9032042E0F06910F440700A
:101DD0001ED0616801F44071884219D01F49F06932
:101DE00001220A6000220A6020F44071C007F161FC
:101DF0000ED0FFF75DFC054641F28837F069800799
:101E000006D4FFF755FC411B0320B942F6D91FE069
:101E1000F0696168B8F1000F20F4407040EA0100F9
:101E2000F0611EBFB06920F08050B061206881076A
:101E300005D53168A26821F4404111433160C006E4
:101E400005D53068E16820F4800008433060002048
:101E500002B0BDE8F08100BF007000404004424283
:101E60002DE9F843002800F08E8088464849044652
:101E7000086800F0070040450AD2086820F0070013
:101E800040EA08000860086800F0070040457AD181
:101E900020685C4B8946810711D5410742BF19680C
:101EA00041F4E0611960010742BF196841F46051D3
:101EB00019601968A26821F0F00111431960C00788
:101EC0002AD06068012804D153F8041C890309D47E
:101ED00059E053F8041C022802D1890102D452E0CF
:101EE000890750D519681D4621F003010843186081
:101EF000FFF7DEFB064641F28837286861682B460B
:101F000000F00C00B0EB810F06D0FFF7D1FB801B77
:101F1000B842F2D9032037E0D9F8000000F00700FA
:101F200040450DD9D9F8000020F0070040EA08002C
:101F3000C9F80000D9F8000000F00700404522D1A0
:101F40002068410705D51968E26821F4E061114372
:101F50001960000706D51868216920F4605040EA2E
:101F6000C10018601C4600F031F82168094AC1F32D
:101F70000311515CC840F249086008480068FFF747
:101F800019FE002000E0012001B0BDE8F08300BF91
:101F900000200240787F0008180000200400002084
:101FA000E7481849084A00680968C1F30221515CF2
:101FB000C8407047E2481349034A00680968C1F302
:101FC000C221515CC8407047887F000810B50D4C95
:101FD0000D48226802F00C03082B18BF10BDC2F395
:101FE00083430AA1CB5CD10302D40D48584310BDF2
:101FF00021680AA25843C1F34041515CB0FBF1F0A3
:1020000010BD00BF0410024000127A000203040554
:10201000060708090A0B0C0D0E0F10100102000034
:1020200000093D002DE9FC41002800F040810446F4
:102030000078C14EC0074AD0706800F00C00042838
:1020400017D0706800F00C00082802D17068C00337
:102050000FD4606898B1B0F5803F06D03168B0F514
:10206000A02F21D141F480203060306840F48030CE
:1020700020E0306880032AD5606840BB17E13068F3
:1020800020F480303060306820F480203060FFF72A
:102090000FFB05463068800319D5FFF709FB411B8C
:1020A00003206429F6D903E121F4803030603068E0
:1020B00020F480203060FFF7FBFA0546306880038B
:1020C00005D4FFF7F5FA401B6428F7D9D1E0207852
:1020D00080072BD5706810F00C0F07D0706800F0E7
:1020E0000C00082809D17068C00306D43068800746
:1020F00015D52069012812D0D9E021698F4800291F
:102100007CD001210160FFF7D3FA054630688007D3
:1021100005D4FFF7CDFA401B0228F7D9A9E03068B3
:10212000616920F0F80040EAC100306020780007C3
:102130002ED5A06978B181480121C0F88014FFF73D
:10214000B7FA0546706A800715D4FFF7B1FA401B4D
:102150000228F7D98DE079480021C0F88014FFF7F4
:10216000A7FA0546706A800712D5FFF7A1FA401B4F
:102170000228F7D97DE072484FF4FA510068B0FBAD
:10218000F1F0019000BF0198411E00280191F9D1A2
:102190002078400776D5F069C0000BD4F0694FF085
:1021A000010840F08050F061F06900F0805000902C
:1021B000009801E04FF00008624F3868C0050FD466
:1021C000386840F480703860FFF772FA0546386866
:1021D000C00505D4FFF76CFA401B6428F7D948E026
:1021E000E068D8B1012805D0316A05282DD141F029
:1021F00004003062306A40F001002CE000210160F0
:10220000FFF756FA0546306880077FF58FAFFFF776
:102210004FFA411B03200229F5D949E0306A20F02A
:1022200001003062306A20F004003062FFF740FAAB
:10223000054641F28837306A80071CD5FFF738FA27
:10224000411B0320B942F6D932E021F0010030628F
:10225000306A20F004003062FFF72AFA054641F2A6
:102260008837306A800706D4FFF722FA401BB8424D
:10227000F7D903201CE0B8F1000F1EBFF06920F071
:102280008050F061E769002F53D0706800F00C00B7
:10229000082810D1012F0AD07068216A00F480321A
:1022A0008A4204D1616A00F47010884241D0012052
:1022B00002B0BDE8F0812149002088460866FFF79A
:1022C000F7F90546022F0AD147463068800110D53C
:1022D000FFF7EEF9411B03200229F6D9E8E7306841
:1022E000800126D5FFF7E4F9411B03200229F6D926
:1022F000DEE7206AB0F5803F05D17168A26821F45D
:102300000031114371607168626A104321F47411E5
:102310000843706001203866FFF7CAF90446306848
:10232000800106D4FFF7C4F9011B03200229F6D966
:10233000BEE70020BCE700BF0010024000004242A0
:102340001800002000700040411E0020B0EB116F0B
:102350001CBF01207047044AF023516003490B70F1
:10236000072190601160704710E000E023ED00E06D
:102370007047704790F83C300222012B28D080B57E
:1023800080F83D20012280F83C2002685368D2F892
:1023900008C0B2F1804F23F0700E0B6843EA0E03C1
:1023A0005360BDE8804008D04D4B9A4205D04D4B5C
:1023B0009A4202D04C4B9A4204D149682CF08003D7
:1023C000194391600022012180F83C2080F83D10E3
:1023D0001046704740B310B5044690F83D0028B948
:1023E000002084F83C00204600F020F80220211D47
:1023F00084F83D00206801F0BDF9012084F8460012
:1024000084F83E0084F83F0084F8400084F84100DE
:1024100084F8420084F8430084F8440084F84500BE
:1024200084F83D00002010BD01207047E0B5006831
:102430002D49884217D0B0F1804F18BF8CBD144889
:102440000022016841F0010101600021006800F0F4
:102450000100019001981C20FFF7F8FB1C20BDE84B
:102460008C40FFF7E5BB0A480022016841F00401F7
:1024700001600021006800F00400009000981E2018
:10248000FFF7E4FB1E20BDE88C40FFF7D1BB00BF87
:102490001C10024090F83D1001291CBF012070471C
:1024A000022180F83D100068C168B0F1804F41F012
:1024B0000101C16008D00A49884205D00949884213
:1024C00002D00949884204D1816801F00701062938
:1024D00003D0016841F0010101600020704700BF96
:1024E00000040040002C01400008004010B590F8A6
:1024F0003C2004460220012A08BF10BD84F83D009C
:1025000001204FF6777384F83C00206882689A4374
:1025100082600A6812B3102A20D0202A1ED0302AE6
:102520001CD0402A21D0502A2BD0602A35D0B2F5B9
:10253000005F3ED0B2F5805F4AD0702A50D1D1E919
:102540000123C9681A4342EA0121826822F47F42CA
:1025500011438160816841F0770138E0816821F0A2
:102560007001114341F0070131E04B68CA68194618
:1025700001F0F4F92068816841F0470121F0300151
:1025800025E04B68CA68194601F0E8F920688168BF
:1025900041F0570121F0200119E04B68CA68194643
:1025A00001F0EDF92068816841F0670121F0100128
:1025B0000DE0D1E90123C9681A4342EA012182688A
:1025C00022F47F4211438160816841F4804181603F
:1025D0000020002184F83C10012184F83D1010BD3A
:1025E0000120F6E77047B0B504460068C16802698B
:1025F00002EA0105A90713D56FF00201016101216B
:1026000021778069800703D02046FFF7EBFF05E0C4
:10261000204600F097F8204600F00FF900202077C0
:10262000680715D520686FF0040101610221217748
:10263000806910F4407F03D02046FFF7D3FF05E008
:10264000204600F07FF8204600F0F7F800202077C1
:10265000280714D520686FF0080101610421217753
:10266000C069800703D02046FFF7BCFF05E0204685
:1026700000F068F8204600F0E0F800202077E80637
:1026800015D520686FF01001016108212177C0691C
:1026900010F4407F03D02046FFF7A4FF05E020465A
:1026A00000F050F8204600F0C8F800202077E80736
:1026B00006D020686FF001010161204600F00AF9A0
:1026C000280606D520686FF0800101612046FFF7DB
:1026D0004FFE680606D520686FF040010161204674
:1026E00000F010F9A80658BFB0BD20686FF02001B7
:1026F00001612046BDE8B040FFF73BBEFEB50021BA
:10270000CDE90411CDE902110068B0F1804F13D179
:102710000A48016841F00401016002A9006800F064
:1027200004000190019802200390072002900320EA
:1027300005900348FEF7DEFE06B080BD181002408B
:102740000008014070470000B0B5044690F83C0016
:10275000012804BF0220B0BD0D464FEAB20101209E
:10276000032984F83C0037D8DFE801F0020A12227E
:102770002068294601F040F8206850F8181F0EE044
:102780002068294601F064F8206850F8181F16E008
:102790002068294601F08CF8206850F81C1F41F091
:1027A00008010160016821F00401016029690FE05E
:1027B0002068294601F0ACF8206850F81C1F41F44D
:1027C00000610160016821F48061016029690902EA
:1027D0000268114301600020002184F83C10B0BD64
:1027E00040B310B5044690F83D0028B9002084F8A5
:1027F0003C00204600F020F80220211D84F83D0016
:10280000206800F0B7FF012084F8460084F83E00FD
:1028100084F83F0084F8400084F8410084F84200C6
:1028200084F8430084F8440084F8450084F83D00AF
:10283000002010BD012070477047704710B5044656
:1028400041B1082909D0042914BF04F1410004F161
:102850003F0004E004F13E0001E004F14000007894
:1028600001281CBF012010BD022041B1082909D058
:10287000042914BF84F8410084F83F0004E084F880
:102880003E0001E084F840002068012200F0A4FF2F
:1028900020680E49884209D0B0F1804F0AD016490D
:1028A000884207D00A49884204D008E04A6C42F4C2
:1028B00000424A64816801F00701062903D00168DB
:1028C00041F001010160002010BD00BF002C01405B
:1028D0000004004000680849884218BF704710B5DE
:1028E000064C204603F000FD054801682046BDE87F
:1028F000104003F0D3BA00BF00080040A408002035
:102900001C00002070477047704700007CB50446EB
:10291000006802680146C56851F8143F5FEA027C0E
:1029200065D005F4907603F0010E1EEB060367D028
:10293000D0071FBF15F48070606C40F00100606428
:10294000500706D5BEF1000F1EBF606C40F00200BC
:102950006064900706D5BEF1000F1EBF606C40F0AA
:1029600004006064BCF1000F08D505F0200010EBF6
:102970000E001EBF606C40F008006064606C0028B0
:1029800000F0008105EA0200800605D5204601F02E
:1029900035F8206800F114010868616C00F040000F
:1029A00001F00801401800F0DB80204600F0FFFF36
:1029B00020684169490601D4CDE0206850E8050F40
:1029C000216820F0400041E80502002AF5D1E06BC3
:1029D000002800F0C08070494163FEF727FD002801
:1029E00000F0D080E06B416BBDE87C40084705EA11
:1029F00002018A0606D52046BDE87C4000F0FEBFF5
:102A000005EA0201226BCB063CD5012A3AD100210E
:102A1000019101680191416801910199416949065B
:102A200040D4E18DA28DE38D002B00F0AB80511AD4
:102A30000A0401D1A6E0206850E8030F226820F4C0
:102A4000907042E80303002BF5D1206850E8050F91
:102A5000226820F0010042E80503002BF5D1202078
:102A600084F8420000202063206850E8030F2268A9
:102A700020F0100042E80303002BF5D1022089B2B8
:102A8000606353E00A0656D449067BD5C16821F03D
:102A90004001C160202084F841002046BDE87C4010
:102AA00000F0F1B8E26B11684B689DB2002D69D05F
:102AB000A18D8D4266D2E3859269202A01D130E052
:102AC000206850E8030F216820F4807041E8030279
:102AD000002AF5D1206850E8050F216820F0010098
:102AE00041E80502002AF5D1206850E8050F216869
:102AF00020F0400041E80502002AF5D1202084F8AA
:102B0000420000202063206850E8030F216820F075
:102B1000100041E80302002AF5D1E06BFEF767FCE4
:102B2000A18D02206063E08D081A81B22046BDE8C5
:102B30007C40FFF7E8BE94F84110212922D1A1681A
:102B4000B1F5805F01D1216981B1216A4A1C2262FD
:102B50000978416011E02046BDE87C40FFF7D4BE13
:102B60002046FFF7D1FE002060647CBD216A31F869
:102B7000022B6FF35F2242602162E18C0139E18414
:102B8000090400D07CBDC16821F08001C160C1682A
:102B900041F04001C1607CBDA339000858B310B5B5
:102BA000044690F8410028B9002084F840002046EF
:102BB00000F024F8242084F841002068C16821F442
:102BC0000051C160204600F07BFF2068016921F4BC
:102BD00090410161416921F02A014161C16841F4DC
:102BE0000051C16000202021606484F8411084F805
:102BF0004210606310BD01207047000070B586B0C0
:102C000000261E4CCDE90466CDE90266006804F595
:102C1000405188422FD11A4802AD016841F48041E9
:102C20000160016801F4804101910199016841F05E
:102C3000040101602946006800F004000190019839
:102C4000022003904FF4007002900320059020466C
:102C5000FEF750FC4FF48060039629460290204610
:102C60000496FEF747FC252000210022FEF7EEFF28
:102C70002520FEF7DDFF06B070BD00BF0008014053
:102C80001810024070477047FEE700000268516963
:102C900049054FF000010ED59A4B53612022016384
:102CA00080F83D2080F83E1080F83C10016C41F027
:102CB0000401016401210846704700BF2DE9FC476B
:102CC000044600680F460A9EDDF82C801D4691469A
:102CD00000220168334641F480610160016841F4DB
:102CE0008071016020464FF00111CDF8008000F0A6
:102CF00067F8216838B10868C00544BF4FF4007018
:102D00002064032038E007F0FE0A2C4F20463246AC
:102D10004346C1F810A0394600F09CF858BB00208B
:102D200042460190206841690191314680690190D5
:102D30000198204600F01BF9A8B92068012D09D0A0
:102D40004FEA1921424601612046314600F00FF951
:102D500048B920685FFA89F1424601612046314650
:102D600000F005F958B1206C042804D120680168EE
:102D700041F400710160012002B0BDE8F0872068D5
:102D800000223346016841F48071016020464FF013
:102D90000111CDF8008000F013F821680028AAD1B5
:102DA0004AF001003246434608612046394600F0A9
:102DB00051F8002818BF0120DEE700BF0200010023
:102DC0002DE9F047DDF820909846164604468FB26C
:102DD00001F47F0503F1010AB5F5803F4FF01800BB
:102DE00008BF1420216808583840C01BB0FA80F092
:102DF0004009B0421CBF0020BDE8F087BAF1000FC7
:102E0000EAD0FEF755FCB8F1000F03D0A0EB0900A3
:102E10004045E1D9B5F5803F4FF0180008BF1420B8
:102E2000216808583840C01BB0FA80F04009B04211
:102E3000D2D100202021206384F83D1084F83E0088
:102E400084F83C00206C40F0200020640120BDE8A4
:102E5000F08700002DE9F8439846914604468FB26A
:102E600001F47F05561C2068B5F5803F06D1014668
:102E700051F8142F3A40BA4206D129E0816939400D
:102E8000B94225D000F114010968490522D4002E69
:102E9000E9D0FEF70DFCB9F1000F03D0A0EB08005C
:102EA0004845E0D92068B5F5803F0CBF406980698E
:102EB0003840B842D7D000202021206384F83D104C
:102EC00084F83E0084F83C00206C40F0200013E0C1
:102ED000002013E0016841F400710160094941617B
:102EE00000202021206384F83D1084F83E0084F8FF
:102EF0003C00206C40F004002064012001B0BDE8DB
:102F0000F08300BFFFFBFFFF70B515460E46044679
:102F100020684169490644BF002070BD4169C90667
:102F200014D4FEF7C5FB16B1401BB042F0D920689F
:102F300040694006ECD400202021206384F83D1035
:102F400084F83E00206C40F020000AE06FF0100191
:102F5000416100202021206384F83D1084F83E0068
:102F6000206C2064002084F83C00012070BDF8B57E
:102F700015460E4604464F1C2068406900061ED4C4
:102F80002046FFF783FEC0B9002FF5D0FEF790FB77
:102F900016B1401BB042EFD9206840690006EBD45F
:102FA00000202021206384F83D1084F83E0084F83E
:102FB0003C00206C40F020002064012000E0002054
:102FC00001B0F0BDBFB51B4C1B49002201254FF4D9
:102FD0006023204640F8081F4FF480710273057586
:102FE000C0E90653C0E90121022103920161CDE944
:102FF0000122FEF729F808B1FDF731FF032008345C
:10300000029501A9019020460395FDF795FF08B1AF
:10301000FDF725FF022001A902900420019020461F
:10302000FDF78AFF08B1FDF71AFF2046FDF71CFFE8
:10303000BFBD00BF58010020002401402DE9F04F22
:1030400085B03048304C314F00224FF4005A0168AF
:1030500004F5006641F010010160016801F0100103
:1030600001910199016841F020010160016801F0BE
:10307000200101910199016841F00401016001689A
:1030800001F0040101910199016841F0080101601A
:103090004FF40051006800F008000190019830469C
:1030A000B84720464FF4807100224FF4807BB84728
:1030B00004F580654FF404710022A1462846B84704
:1030C0004FF0010801AF02243046CDE901A8DFF836
:1030D00040A03946CDE90344D0470020CDE901B8EE
:1030E0003946CDE903044846D0474FF40470CDF883
:1030F0000880394601902846CDE90348D04705B0FD
:10310000BDE8F08F1810024000080140A516000825
:10311000F514000880B50C481B490C4A00234FF4F5
:10312000804C0362C0E90021C0E90233C0E904C356
:10313000C0E90633FEF7C2FA002814BFBDE880409C
:1031400080BDFDF78CBE00BF240700200054004066
:1031500080B50C480C490D4A00234FF4804C0362A3
:10316000C0E90021C0E90233C0E904C3C0E9063365
:10317000FEF7A4FA002814BFBDE8804080BDFDF72B
:103180006EBE00BF78070020801A0600005800407D
:1031900010B58EB0002401A81C21CDE90C44CDE966
:1031A0000A44CDE90844FDF7FDF828484FF0804176
:1031B00020224FF4E163C0E9001400F108011CC1B2
:1031C00080218161FFF706F908B1FDF748FE4FF451
:1031D00080500AA90A901D48FFF788F908B1FDF749
:1031E0003EFE1A48FFF7FCFA08B1FDF738FE00244E
:1031F000202008A9099408901448FFF7BBF808B1EB
:10320000FDF72DFE4FF4E16001A90022029070202D
:1032100001900E4803940594FFF796FA08B1FDF764
:103220001EFE0A4801A90422FFF78EFA08B1FDF735
:1032300016FE064801A90822FFF786FA08B1FDF735
:103240000EFE0248FFF75AFA0EB010BDCC07002060
:10325000FEB51748174A0021472340F2F31CCDE979
:103260000411CDE90211C0E900238022C0E9021C4B
:1032700001618261CDE90011FFF7ACF808B1FDF7FB
:10328000EEFD4FF4805002A902900948FFF72EF995
:1032900008B1FDF7E4FD00206946CDE900000448CF
:1032A000FFF768F808B1FDF7DAFD06B080BD00BF92
:1032B000140800200008004080B50C480C4A4FF468
:1032C000E13100234FF00C0CC0E90021C0E90233CA
:1032D000C0E9043CC0E90633FFF760FC002814BFD6
:1032E000BDE8804080BDFDF7BABD00BF5C0800208E
:1032F00000380140FEE7FEE770470000B0B58EB031
:1033000001AD044632212846FDF74CF8204604F072
:103310004DF902460B4605A12846FCF763FF05A1BF
:1033200000202A4600F050F80EB0B0BD252E3466BD
:103330000A00000025730000F8B50646214814462F
:103340000D460078532818BF00F004FCEFF31187F6
:103350004FF0200181F3118830462246294600F0C3
:1033600005F887F3118801B0F0BD00BF70B50D46B8
:10337000144900EB4000144601EBC001C86A01F19A
:103380001806022809D001280ED020B9304600F0D6
:103390004FFCA0420ED2002411E0304629462246BE
:1033A000BDE8704000F0E1BC304600F041FCA042B6
:1033B00038BF044630462946224600F005FD204627
:1033C00070BD00BF2402002082B0E0B5CDE9042327
:1033D00004AA019201AA00F005F8BDE88C4002B0F1
:1033E000704700002DE9F04F9BB00F4640219346F7
:1033F0004FF0000A16AE4FF0080900240490179110
:1034000006A916911A90CDE918AA3D4615F8011B98
:10341000252907D0002900F03A81304600F084FCCD
:103420002F462BE1B91C4FF0000808E0022002E013
:10343000082000E0042048EA0008013101352A781C
:10344000232AF5D001202B2AF4D02D2AF3D0302ABC
:10345000ECD0002007E000EB8000D2B202EB40008D
:1034600011F8012B3038A2F13003092BF3D92E2AA1
:103470000ED1002506E005EB8503013102EB430286
:10348000A2F130050A78A2F13003092BF3D901E04B
:10349000013900254F1CA2F16301092916D8DFE884
:1034A00011F00D005D00ED00ED00ED000A00ED00F3
:1034B000ED00ED000A0017F8012BECE7DBF8000047
:1034C000011DCBF800100178304676E0A2F17001C2
:1034D000082912D8DFE801F005D2D21DD234D2D2A9
:1034E0001600DBF8000010220823011DCBF80010A5
:1034F00001683046CDE9009A2DE0252A5BD0582A94
:1035000040F0BC80DBF800100A1DCBF80020102230
:103510001CE0DBF80000011DCBF80010046864A07B
:10352000002C08BF04462178002900F0A78030460F
:1035300000F0FAFB19980134B0F1FF3FF3DC9DE095
:10354000DBF800100A1DCBF800200A220968CDE93B
:10355000000830462B4600F075FB8FE0DBF80010CA
:10356000CDF814B04FF0010A0A1DCBF80020D1F8B5
:1035700000B0BBF1000F5946CBF1000248BFCBF1C0
:10358000000102920A2203E0B1FBF2F10AF1010A02
:103590000A29F9D2AA4538BFAA4688B1BBF1000F63
:1035A0004FF0000108F00402B8BF012141EA920186
:1035B000A0EB010906E03046252100F0B5FB5DE0F7
:1035C0004FF0000918F00200039000D0B5B15FEA97
:1035D000C87013D1B9F1000F10D0B9F1000F0BD0A2
:1035E000CA450BD23046202100F09EFB199CA9F160
:1035F0000109002CF1DA3BE04FF00009002C37DB29
:10360000BBF1FF3F08DD5FEA487003D530462B2150
:1036100000F08AFB5C4604E030462D2100F084FB7C
:10362000029C1998002823DB039860B9DDF814B0D8
:10363000304621460A222B464FF0000ACDE9009879
:1036400000F000FB18E008F001002843EED1B9F1CA
:10365000000FEBD0B9F1000F16D0CA45E6D23046C4
:10366000302100F061FB1998A9F101090028F1DA75
:10367000DDF814B04FF0000A4FF00809199CB4F1BE
:10368000FF3F3FF7C2AE0FE04FF00009CEE7012C3D
:1036900009DB189D25B1049806A92A46FFF74CFEC0
:1036A0002C44199400E0002420461BB0BDE8F08FA4
:1036B000284E554C4C29000004E030F8023B013AFA
:1036C00021F8023B002AF8D170477047FEF756BA3E
:1036D000B0B594B0002405A81421CDE90F44CDE97C
:1036E0000D44FCF75FFE01204FF48031CDE9034427
:1036F000CDE9014402250A90CDE90B140E904FF458
:10370000E010CDE9115113900AA8FEF78BFC18B117
:10371000EFF3108072B6FEE70F20022105904FF400
:1037200080600794CDE9080405A80695FEF798FB8C
:1037300018B1EFF3108072B6FEE74FF4004003902B
:103740000220019001A8FEF713FB18B1EFF31080DF
:1037500072B6FEE714B0B0BD704700000148FEF736
:1037600042BF00BFCC0700200148FEF73CBF00BFAE
:1037700014080020B0B50368774DB0F1804F07D032
:10378000134CA04204D0A84202D0124CA04207D150
:103790004C6823F45C73CA6824F4407423431343D5
:1037A0004A6923F08003A84242EA030202608A6861
:1037B000C2620A68826204BF09692963012141610A
:1037C0000169C9071EBF016921F001010161B0BD96
:1037D000000400400008004001F01F01012303FA2B
:1037E00001FC036A02FA01F123EA0C030362026A94
:1037F000114301627047000070B5026A036A23F04A
:10380000010322F002020362D0F804E0D0F818C0ED
:103810008C680B6822432CF0730444EA030C4E4B73
:1038200098420CD1CE68D1E905452EF4407322F0C0
:103830000C02234343EA050E26F004031A43C0F8A2
:1038400004E0C0F818C049684163026270BD00BF5F
:1038500070B5026A036A23F0100322F020020362AB
:10386000D0F804E0D0F818C08C680B6842EA041263
:103870002CF4E64444EA032C374B98420FD1CE682F
:10388000D1E905452EF4406322F0C00243EA8403E7
:1038900043EA850E6FF0400303EA06131A43C0F8AB
:1038A00004E0C0F818C049688163026270BD00BFBF
:1038B00070B5026A036A23F4807322F40072036213
:1038C000D0F804E0D0F81CC08C680B6842EA0422EF
:1038D0002CF0730444EA030C1F4B98420FD1CE68BE
:1038E000D1E905452EF4405322F4406243EA041323
:1038F00040F2FF4443EA051E3302A3431A43C0F8D3
:1039000004E0C0F81CC04968C163026270BD00BF1A
:10391000B0B5026A036A23F4805322F400520362B2
:10392000D0F804E0C5698B680C6842EA033C0A4B96
:1039300025F4E64242EA0422984204D14B692EF46F
:10394000804545EA831EC0F804E0C261496801640D
:10395000C0F820C0B0BD00BF002C0140D0F820C08E
:10396000036A23F001030362836923F0F00343EA4F
:10397000021282612CF00A02114301627047D0F8F2
:1039800020C0036A23F010030362836923F47043A9
:1039900043EA023282612CF0A00242EA0111016284
:1039A0007047406A0021C185C184FEF7ADBF016840
:1039B00051E8031F026821F4907142E80313002BC1
:1039C000F5D1016851E8051F026821F0010142E8C4
:1039D0000513002BF5D1016B012909D1016851E8CC
:1039E000031F026821F0100142E80313002BF5D1F8
:1039F000202180F8421000210163704790F84210A6
:103A0000222918BF70478368B3F5805F05D101692B
:103A1000B1B100F128010A680BE00146002B51F812
:103A2000282F01D1036923B103685B6803F07F038A
:103A300001E003685B6813700A6801320A6007E0FE
:103A40000168826A49686FF35F2122F8021B826273
:103A5000C18D0139C185090400D070470168CA6869
:103A600022F02002CA60CA6822F48072CA604A69E1
:103A700022F001024A61202280F8422000224263A3
:103A8000036B012B18BFFFF7FDB8026351E8031F5A
:103A9000026821F0100142E803130168002BF5D100
:103AA0000A68D20608D581B0002200920A68009206
:103AB00049680091009901B0818DFEF724BF000094
:103AC00010B5044600680169E26821F440511143D1
:103AD00041F20C620161D4F808C0D4E904E3C16882
:103AE00091434EEA0C021A431143C1604169A26935
:103AF00021F44071114341611149884202D0FEF71F
:103B00004FFA01E0FEF756FA19214843D4E90012B2
:103B10006FF063049200B0FBF2F06422B0FBF2F3AA
:103B200003FB0400322404EB0010B0FBF2F000F0C1
:103B3000F00200F00F0002EB03121044886010BD89
:103B4000003801400148FEF7E1BE00BF5C080020DC
:103B5000FEE7000010B5124CA8212046FCF722FC1D
:103B600003201149206160610E48A061E1614FF4BA
:103B7000806121620021A1626162E16220660B48DE
:103B800060661020A0662167E16661670F2008A1CA
:103B9000421C08BF10BD0A5C013804F8012BF7E78E
:103BA00024020020BE800008DC020020CC0200209D
:103BB000000000000000545452205245474745532E
:103BC00000000000BFB51248124D90E80E00C0681A
:103BD0000090281D00F0E6F90F4C05F13C00012192
:103BE000022204230425CDE90044029400F068FD7C
:103BF0000A4A0B480B211346009202F035FC094893
:103C000009490A4A0323CDE9005401F0AFF9BFBDC9
:103C10000800002090010020C7CFFFFF00E440C64D
:103C2000A4080020DC0600206F12833A00004842FE
:103C3000C3680169DA4399428FBF881811448068CC
:103C4000084470472DE9F84F8146DDE90AA01F4678
:103C500015460E464FF0010B03E0B1FBF5F10BF1F9
:103C6000010BA942F9D2BB4500F0010438BFBB46A5
:103C7000BAF1000F17D0B4B980074FF0200848BF41
:103C80004FF030082020002F18BF8046D3450AD2BD
:103C90004846414600F048F8D9F80C00AAF1010A5C
:103CA0000028F3DA36E0D9F80C00002832DB009463
:103CB000012400E06C43022F01D3013FFAE7B6FB79
:103CC000F4F0A842F6D20FF25008B6FBF4F74846DB
:103CD00018F8071000F028F8D9F80C00002806DBC7
:103CE000B4FBF5F007FB1466AC420446EDD2009835
:103CF00080B1BAF1000F0DD00AF10104013CA345D7
:103D000008D24846202100F00FF8D9F80C00B0F195
:103D1000FF3FF3DCBDE8F88F3031323334353637CE
:103D2000383941424344454610B5D0E901230446A1
:103D3000581C904201D9184606E02268D154A06070
:103D4000E16862680131E160904218BF10BD2168EE
:103D50002069FFF7F1FAA16888421EBF4FF0FF30DB
:103D6000E06010BD0020A06010BD2DE9F843804642
:103D7000806814460D464FF00009D8F80C70D8F84A
:103D80000420D8F81030F9435E18BB42294698BF8A
:103D90000644C01B864228BF0646D019A64228BF4B
:103DA00026463246FCF7B9FAD8F80800F11935442E
:103DB000B1440F1A18BF0F46A41BC8F80C70DED10F
:103DC000484601B0BDE8F0832DE9F041044688463D
:103DD00040681546D4E902168F1B3044974205D936
:103DE00041462A46FCF799FA35440AE041463A46EC
:103DF000FCF793FAED1B606808EB07012A46FCF715
:103E00008CFAE560BDE8F08180B501460248A0EB80
:103E1000510003F09DFE80BD865A375F70B54E4C51
:103E2000214603F070F80021054603F062FC0646C7
:103E30002846214603F0E6FB002E18BF284670BD39
:103E400010B50446084603F0EFFD214603F080FE5E
:103E500010BD0000B0B5094903F0D4FB3E4904464B
:103E600003F040FC06490546204603F0CBFB002D3D
:103E700008BF2046BDE8B04000F004B8DB0FC93FE2
:103E8000DB0FC9C080B503F091FB1F4A1F4B03F045
:103E9000A5F903F05FF9C0F30723C0B23F2B06D8A2
:103EA0001B4931F8132001EB4301498821E07F2BA6
:103EB00009D8174AC3F17F01C3F1800332F811100A
:103EC00032F8132015E0BF2B08D8114901EB43024B
:103ED0006FF0FF0332F8FE1CD25A08E00C4A83F060
:103EE000FF01C3F5807332F8111032F813204942F4
:103EF0005242891A484302EB202003F095FD4FF00F
:103F0000605103F025FE80BDB4F94664305FC440C3
:103F10003C800008FDF7DCBAFCF75CBF70B51446C6
:103F20000D460646FFF7AEFF28603046FFF792FFCA
:103F3000206070BD90F8301000F013B810B5044642
:103F4000FFF7F8FF03F070FDA16A03F03BFC0249A4
:103F500003F0FEFD10BD00BFDB0FC940416301F05F
:103F60008BB8F8B5436B90F831000A464FF0020E5B
:103F70000DF10E014FF0320CCDE9001ECDF808C056
:103F8000410018460123FDF753FC10B14FF0FF30FC
:103F900005E09DF80E009DF80F1041EA002004B0E6
:103FA00080BD0000F8B5044615480F461C211E468A
:103FB0001546606004F10800FCF7F4F9002084F86D
:103FC0002400104808302060012084F8317084F803
:103FD0003060A84003F028FDA0620698022207384E
:103FE000291A02FA00F00138A18584F82F0088B25E
:103FF00002FA00F0013884F82E00204601B0F0BD2E
:1040000017B7D138907F0008816070472DE9F041E3
:1040100086B0884601460068826803A89047DDE9BB
:104020000346059D0021284603F04EFB00BB2046B9
:10403000002103F049FB18BB3046002103F044FB8C
:1040400070BB2046314603F0DDFA0146284603F0F6
:10405000D9FA814903F07CFD05462046294603F044
:10406000C9FE7B49044603F073FD0746304621E054
:104070007749204603F06CFD7649074630461DE03F
:1040800085F00040314603F0B5FE7149044603F067
:104090005FFD70490546304603F05AFD074610E0C3
:1040A0006B49204603F054FD07464FF0004021467F
:1040B00003F0A0FE294603F09DFE664903F048FD8B
:1040C00005463846294603F09DFA0646404600213B
:1040D00003F0FAFAD0B901A902AA4046FFF71EFF81
:1040E0000299304603F034FD01990546204603F05D
:1040F0002FFD0146284603F07DFE002103F0F2FA71
:104100000E4D002818BF4FF07E5501E04FF07E5550
:104110002046214603F01CFD04463046314603F09C
:1041200017FD214603F06EFAFFF76EFE01462846A2
:1041300003F00EFD06B0BDE8F08100BF000080BFB7
:104140002DE9F04786B0814608689046826803A84A
:104150009047DDE903A7059C0021204603F0B4FA4F
:1041600000BB5046002103F0AFFA18BB38460021CF
:1041700003F0AAFA70BB5046394603F043FA0146F1
:10418000204603F03FFA344903F0E2FC044650466F
:10419000214603F02FFE2E49824603F0D9FC064645
:1041A000384621E02A49504603F0D2FC2949064608
:1041B00038461DE084F00040394603F01BFE2449D8
:1041C000824603F0C5FC23490446384603F0C0FC90
:1041D000064610E01E49504603F0BAFC06464FF072
:1041E0000040514603F006FE214603F003FE194944
:1041F00003F0AEFC044601A902AA4046FFF78EFE7A
:104200003046214603F0FEF9029E0446314603F093
:104210009FFC019D07465046294603F099FC014644
:10422000384603F0E7FDC9F804005046314603F074
:104230008FFC06462046294603F08AFC014630469C
:1042400003F0E0F9C9F8000006B0BDE8F08700BF50
:104250003ACD133F3ACD933FABAAAA3E10B50446E0
:104260000020A0602160FFF757FE6060204610BD6F
:104270002DE9F8430E460446FFF74EFE804660687F
:10428000A8EB000003F0E8FB854903F061FC164948
:10429000074603F035FA08B9A6601EE02568D4F891
:1042A00008903846294603F0ADF90146284603F048
:1042B00089FA05464846294603F04AFC07464FF06E
:1042C0007E50294603F096FD314603F041FC01463D
:1042D000384603F097F90646A060C4F804803046DB
:1042E00001B0BDE8F08300BF9A99993E10B504462D
:1042F0000EC00298E060039820610020C4E9050028
:10430000E061FFF709FE2062204610BD2DE9F04F65
:1043100085B08A468146FFF7FFFDD9F80010D9F82D
:104320000450D9F8107001900491D9F82010401A67
:1043300003F092FB5A4903F00BFC4FF07C51064608
:1043400003F0D0F90028B04630464FF000011CBF02
:1043500041F26F28C3F6832803F0D2F900282846DB
:104360001CBF41F26F28C3F68328414603F0F0FBDF
:104370004FF07C5103F0ECFB06464846514650F89E
:10438000144F0090204603F03DF9314603F0E0FB66
:104390004A46014652F81C0F039203F033F9834654
:1043A0004FF000403946029703F024FD0646584678
:1043B000314603F0ACF9054604985146CDF810A0FB
:1043C00003F0C6FB0746002DB24607D1DDF808A072
:1043D0005846514603F086F900B9DA46049821465A
:1043E00003F008FDD9F8081003F0B2FB414603F0D2
:1043F000E9F905463846514603F004F9294603F029
:1044000001F93146054603F082F930B9029E28468B
:10441000314603F067F900B92E46D9F80C50002157
:10442000284603F06DF909F1180BA8B9DBF8007004
:104430003046394603F0DEFC414603F0C3F9294615
:10444000044603F05DF9B0B94046294603F080FB0D
:10445000394603F0D7F80646DDE900470398C0F86F
:1044600000A00498CBF800602060C9F820703046A6
:1044700005B0BDE8F08F85F000412046029703F0BB
:1044800038F9DDE900470028E8D14046294603F025
:104490005FFB0146029803F0ADFC0646DEE700BF75
:1044A000BD37863570470000F8B507461A490446FF
:1044B00057F80C6F304603F007F9391F40B90D6803
:1044C0003046294603F01CF9002808BF3D6001E092
:1044D0000D683D60114D134E00212868C06A606070
:1044E0000F4838602846B04728460421B047284680
:1044F0000821B04762680CA10020FEF765FF38680C
:10450000FEF7FCFE10A10020FEF75EFF01202077E1
:10451000012001B0F0BD00BF00E440C6CC07002080
:10452000000040413D28000870776D5F667265713C
:1045300075656E63793A25752C766F6C7461676565
:104540005F6C696D69743A000A00000010B504469A
:1045500009484FF400710122FDF7A4F820680021FA
:1045600000220023D0F80CC02046E04703A1002021
:10457000BDE81040FEF728BF000C0140656E616287
:104580006C65206D6F746F722E0A00002DE9F04784
:1045900082460F460846002198461646002503F03D
:1045A000B6F838B9DAF80C503946284603F0AFF8B7
:1045B00000B93D4630460021002703F0A8F838B97D
:1045C000DAF80C703146384603F0A1F800B93746E6
:1045D000404600214FF0000903F099F838B9DAF8A5
:1045E0000C904146484603F092F800B9C146DAF80B
:1045F00008602846314603F0E5F80021054600240E
:1046000003F085F840B928464FF07E514FF07E54B4
:1046100003F068F800B92C4638463146CAF8104015
:1046200003F0D0F800210546002703F070F840B9E8
:1046300028464FF07E514FF07E5703F053F800B9F3
:104640002F4648463146CAF8147003F0BBF80021E3
:104650000546002603F05BF840B928464FF07E512E
:104660004FF07E5603F03EF800B92E460448CAF8D3
:10467000186021463A463346BDE8F04701F05EBF78
:10468000CC07002080B5016800220023D1F80CC0BF
:104690000021E04705484FF400710022FDF702F8C1
:1046A00003A10020BDE88040FEF78EBE000C014053
:1046B00064697361626C65206D6F746F722E0A009D
:1046C00010B54FF0000C0D4CC0F820C080F81CC095
:1046D0004FF0010C80F83CC000F1240CACE80E0057
:1046E0000299074A074B0163039941630499816367
:1046F0000549083180E81A00C26010BD0000404141
:1047000000E440C6C7CFFFFFBC7F00082DE9F04F93
:104710008DB08346007920B1012528460DB0BDE853
:10472000F08FDBF80800D8B10B469BF80C1000297D
:1047300000F0768307A9EE4F04930A1D0831059116
:104740000AA9069201F1040A01F10808DBF82C100D
:10475000B9420CD15846012550F8304F0290B8E0CC
:104760000FF2D06100200025FEF72EFED5E70BF1F9
:104770001401002203910168CF6819460023B8474D
:104780004FF4FA60FFF7C6FBDBF800005946826879
:104790000AA89047D74ED84F64240DF11C0939E080
:1047A000DBF8000059468268484690470A9831462F
:1047B00003F0CEF905460798394603F0C9F90146DA
:1047C000284602F01FFF0A903146DAF8000003F095
:1047D000BFF9054606983946006803F0B9F9014665
:1047E000284602F00FFFCAF800003146D8F8000052
:1047F00003F0AEF9054605983946006803F0A8F9BC
:104800000146284602F0FEFEC8F800000320FFF72C
:1048100081FB013C002CC3D1DBF8080000220023FF
:1048200000270168CE680021B047DAF80090002127
:10483000484602F049FF28B90A98494602F0C2FFEB
:1048400020F00047D8F8006000210025304602F033
:104850003BFF28B90A98314602F0B4FF20F000452A
:1048600038464FF07F5102F04BFF5946002851F86F
:10487000304F029102D19E4884420DD128464FF01C
:104880007F5102F03DFFDBF83410002840F0F38048
:104890009748814200F0EF800A9D0021284602F0EF
:1048A00036FF06462846002102F01CFF014600287C
:1048B0008F4F4FF0010518BF4FF07E51002E1CBFE7
:1048C0000021CBF68071039E306803F041F9049B10
:1048D0003060BC4200F06D810BF118001A460023D5
:1048E00003950190DBF808000168CF680021B84704
:1048F000C820FFF70FFBDBF80000594682680AA8C2
:1049000090477E4D7C4E4FF064095BE0DBF8000081
:104910005946826807A890470A9802F047FE4FF070
:1049200033322B4602F05AFC074607980C463146B4
:1049300003F00EF902F03AFE02460B4638462146D5
:1049400002F060FB02F02CFB0A90DAF8000002F0A3
:104950002DFE4FF033322B4602F040FC0446069801
:104960000F463146006803F0F3F802F01FFE0246DE
:104970000B462046394602F045FB02F011FBCAF80F
:104980000000D8F8000002F011FE4FF033322B4641
:1049900002F024FC044605980F463146006803F0F7
:1049A000D7F802F003FE02460B462046394602F0D5
:1049B00029FB02F0F5FAC8F800000320FFF7AAFA75
:1049C000A9F10109B9F1000FA0D1DBF8080000221C
:1049D000002300270168CE680021B047DDF8289049
:1049E0000021484602F070FE30B9DAF8000049466E
:1049F00002F0E8FE20F00047D8F800600021002512
:104A0000304602F061FE30B9DAF80000314602F0BB
:104A1000D9FE20F0004538464FF07F5102F070FE7D
:104A2000DBF82C4010B9324884420AD128464FF0B6
:104A30007F5102F065FEDBF83410A8BB2C488142A0
:104A400032D0DAF800400021204602F060FE054630
:104A50002046002102F046FE01460028244F18BFE0
:104A60004FF07E51002D1CBF0021CBF68071019CC0
:104A7000039D206899E00191EC49384602F039FE27
:104A8000E84FE8BBBC423BD0DBE90801DBF82C2057
:104A9000CBE90B42CBE9081048460021144602F04E
:104AA00036FE0546484646E00391E049384602F0A6
:104AB00020FEDC4F00284FD1BC424DD0DBE908017D
:104AC000DBF83020CBE90B24CBE908104846002165
:104AD00002F01DFE05464846002102F003FE0028B4
:104AE00018BF4FF07E50002D4FF0020557E000BF79
:104AF000C7CFFFFF9A99193FCDCCCC3E3333E33F6C
:104B0000CA49284602F0F5FD019B002840F0888143
:104B1000BB4200F08581DBF82000DBE90A12CBF80C
:104B20003420CBF82010CBE90A033046002102F0F4
:104B3000EEFD05463046002102F0D4FD002818BFE6
:104B40004FF07E50002D4FF002051CBF0020CBF629
:104B50008070039E3168B8E6B449284602F0C9FD6A
:104B6000039B002840F05C81BB4200F05981DBE9E7
:104B70000901DBF83020CBE90C32CBE909103046D3
:104B8000002102F0C4FD04463046002102F0AAFDD7
:104B900000284FF0020518BF4FF07E50002C1CBFBC
:104BA0000020CBF68070019C216802F0D1FF049BAD
:104BB0002060DBF83400B84200F0D1800BF11C001B
:104BC000002203950190DBF808000168CF680021FE
:104BD000B847C820FFF79EF9DBF800005946826805
:104BE0000AA89047924F904E4FF064095BE0DBF8C3
:104BF00000005946826807A890470A9802F0D6FC40
:104C00004FF033323B4602F0E9FA044607980D466E
:104C1000314602F09DFF02F0C9FC02460B462046D9
:104C2000294602F0EFF902F0BBF90A90DAF8000029
:104C300002F0BCFC4FF033323B4602F0CFFA0446A0
:104C400006980D463146006802F082FF02F0AEFC85
:104C500002460B462046294602F0D4F902F0A0F99C
:104C6000CAF80000D8F8000002F0A0FC4FF0333280
:104C70003B4602F0B3FA044605980D4631460068FB
:104C800002F066FF02F092FC02460B4620462946DF
:104C900002F0B8F902F084F9C8F800000320FFF729
:104CA00039F9A9F10109B9F1000FA0D1DBF8080029
:104CB0000022002300270168CE680021B047DDF8FC
:104CC00028900021484602F0FFFC30B9D8F80000D7
:104CD000494602F077FD20F00047DAF80060002135
:104CE0000025304602F0F0FC30B9D8F8000031461B
:104CF00002F068FD20F0004538464FF07F5102F089
:104D0000FFFCDBF82C4010B9464884420CD1284601
:104D10004FF07F5102F0F4FC02990028D1F800A076
:104D200033D14048824530D0D8F800400021204699
:104D300002F0EDFC05462046002102F0D3FC0146BE
:104D4000002818BF4FF07E51002D1CBF0021CBF66C
:104D50008071019C039D206802F0FAFE2060DBF860
:104D60001400002102F0D3FC68B9DBF81800002120
:104D700002F0CDFC38B9DBF81C00002102F0B9FCD0
:104D800000287FF4CAAC0235C7E42849384602F04F
:104D9000B0FC244FF0B9BC421CD0DBF82000DBF89B
:104DA0002810DBF83420CBF83440CBE90A02CBF8EA
:104DB00020104846002102F0AAFC05464846002182
:104DC00002F090FC002818BF4FF07E50002D4FF0ED
:104DD00002051EE01549284602F08BFC00BBBA45CF
:104DE0001ED0DBE90901DBF83420CBE90C2ACBE942
:104DF00009103046002102F08AFC044630460021AA
:104E000002F070FC00284FF0020518BF4FF07E50F2
:104E1000002C1CBF0020CBF68070019C21689BE712
:104E200000257AE4C7CFFFFFCDCCCC3E3333333FF0
:104E30003333E33F4355523A204E6F206472697614
:104E40006572206C696E6B6564210A002DE9F84378
:104E500004460020404F4FF47A76254645F8200F4F
:104E6000A846A94648F8080F49F8040F24E0FBF7C4
:104E700065FFE06AB84205D001F044FB296802F002
:104E8000C1FB2860206BB84207D001F03BFBD9F88A
:104E9000001002F0B7FBC9F80000606BB84207D001
:104EA00001F030FBD8F8001002F0ACFBC8F80000AD
:104EB0000120FFF72FF8013E002ED8D1E06AB8425A
:104EC00004D028680D4902F07DFC2860206BB842B0
:104ED00006D0D9F80000094902F074FCC9F80000B6
:104EE000606BB84208BFBDE8F883D8F800000349FA
:104EF00002F068FCC8F80000BDE8F88300007A44BE
:104F000070B50D460446FBF719FFE86A01F0FAFA9E
:104F1000296A6E6902F06EFF314602F019FE2060C8
:104F2000286B01F0EFFA696AAE6902F063FF31465F
:104F300002F00EFE60600849686B884201D10020D3
:104F400008E001F0DFFAA96AEE6902F053FF31468A
:104F500002F0FEFDA06070BDC7CFFFFF10B5044694
:104F6000FFF774FF01202073012010BDB0B5044687
:104F700000201546A0602071207320610498E36230
:104F800004F134032063059807C30A480830206001
:104F90004FF07E5002F016FC294602F013FC20640C
:104FA00060610146E0614FF0004002F023FFA06124
:104FB0002046B0BDD87F00082DE9F04104460669BF
:104FC0008069301A02F0F3F81A4A1B4B02F006F916
:104FD00001F0E6FF0021054602F08BFB28B9E068EE
:104FE000E169C4E9050621621FE06068294602F014
:104FF00087FBD0B1A661E668D4F81480D4E9070134
:1050000066612062401A02F00FFD4A4902F0A0FDDD
:1050100007463046414602F0EDFE0146384602F0B2
:10502000F1FA294602F0CEFBA06004F10800006806
:10503000BDE8F0818DEDB5A0F7C6B03E0020704709
:1050400070B5C468C06902F0B2F8084B4FF0C042B6
:1050500002F0C4F8054620460E4602F0A7FA0246C2
:105060000B462846314601F0CDFF70BDFB211940AB
:10507000C0697047C068704710B504460068C169D0
:10508000204688470120FBF78BFE2068C169204637
:1050900088476061FEF740FFA0610120FEF73AFFFC
:1050A0002068C169204688470120FBF779FE206807
:1050B000C16920468847E060FEF72EFF206110BDE1
:1050C000F8B504460068C1692046884700210546B6
:1050D00002F01DFBE0B9FEF71FFF274657F80C1F33
:1050E0007860284602F086FE0A49064620F0004015
:1050F00002F006FB58B93046002102F0F3FA012114
:10510000002818BF4FF0FF31E0690844E0613D60BE
:10511000F8BD00BF7CD9A04010B5C468C06902F0DA
:1051200083FC044902F014FD0146204602F06AFAAD
:1051300010BD00BFDB0FC940C0F84811704770B503
:10514000D0F848510446ADB194F9340102F06CFC3A
:1051500006462868416828468847014604F58C7051
:10516000FFF786F8314602F0F3FCD4F82C1102F078
:1051700041FE70BDE06870BD70B5D0F8485104467E
:105180008DB194F9340102F04FFC06462868C168DD
:1051900028468847014604F58670FFF769F83146CE
:1051A00002F0D6FC70BD606970BD70B5D0F8485192
:1051B0000446ADB194F93401616C484302F034FC0B
:1051C00006462868016828468847314602F0C0FC38
:1051D000D4F8301102F00EFEBDE87040FEF71EBE9E
:1051E000206970BDC0F84C11704700002DE9FE43E6
:1051F00000260446DFF8F0804FF07C514FF07C52DF
:1052000000238660A0F85C60012084F85F003448C9
:10521000083020603348CDE90060814604F1640025
:10522000C04704F188004FF07C514FF07C520023BE
:10523000CDE90069C0472D4D2D4F04F1AC00294642
:10524000B84704F1B8002946B8472A492A4A04F168
:10525000C4000023CDE90069C047284D04F1E800EF
:10526000002200232946CDE90065C047244904F502
:105270008670B84704F58C700021B847D148C4E95E
:1052800049662149C4F83001642084F83461C4F8C7
:1052900038010920A4F83C6184F83E010420C4F8D8
:1052A0004001632084F844011648C4F85061C4E901
:1052B00014904FF07E50A565C4E90E1004F124004F
:1052C000142184F85E606660A661C4F82C61C4E9AC
:1052D0005266FBF767F8204603B0BDE8F08300BFD5
:1052E000F07F000800004041ED4200080AD7233C4F
:1052F0005D4200089A99993E000020410000A041BB
:105300000AD7A33B0000A04000004040C0F8541161
:10531000704700002DE9FE4F054686A10020FEF7EC
:1053200053F8D5F8480101688969884730B12846A3
:1053300000F0AEFC064610B90026C4E0012695F840
:10534000340170B180A10020FEF73EF805F5987495
:105350009C49206802F0B8F9002840F08780A249F3
:1053600080E07F48019605F13804002640F2F518E8
:1053700082467C4883467C4881461BE0304602F0EA
:1053800053FB514602F0E4FB594602F01BFA494632
:1053900002F038F903462868216800228769284608
:1053A000B847D5F848010168496988470220FEF7E7
:1053B000B1FD01364645E1D1D5F84801016849699A
:1053C0008847D5F8480101684968884702906448D1
:1053D0004FF4FA77824663488346634880461BE071
:1053E000384602F021FB514602F0B2FB594602F06A
:1053F000E9F9414602F006F90346286821680022CF
:1054000086692846B047D5F8480101684969884748
:105410000220FEF77FFD013FB7F1FF3FE0DCD5F84A
:105420004801016849698847D5F848010168496819
:1054300088470446286800210022002387692846FF
:10544000B847C820FEF766FD029E2146304602F0AE
:10545000D1FC20F000474549384602F058F9B0B376
:10546000624900260020FDF7AFFF2CE02868A96BF9
:105470003D4B00224FF0000887692846B847DFF807
:1054800048914FF42F70C847D5F848010168496921
:1054900088472846C4F80080FFF787FE2060142064
:1054A000C847206802F082F802460B4647A1002058
:1054B000FDF78AFF2868002100220023876928461B
:1054C000B847C820C847304603B0BDE8F08F304623
:1054D000214602F00EF9019E28B92CA10020FDF70B
:1054E00073FFFF2004E022A10020FDF76DFF0120E3
:1054F00085F83401686C02F097FA0146384602F0EC
:1055000027FB294902F07EF820F000404FF07C5143
:1055100002F0F6F860B91248394602F053F902F089
:1055200045F80B46264902460020FDF74DFF0DE7E2
:105530001EA108E74D4F543A20416C69676E2073F5
:10554000656E736F722E0A004D4F543A20536B698B
:1055500070206469722063616C69622E0A00000029
:10556000DB0FC9400000FA43E4CB9640A9CF7E3D53
:105570004D4F543A2073656E736F725F6469726544
:105580006374696F6E3D3D43570A00004D4F543AB6
:105590002073656E736F725F646972656374696F9F
:1055A0006E3D3D4343570A00DB0FC9C04D4F543A8F
:1055B00020505020636865636B3A204F4B210A00EE
:1055C000C780000800E440C6153F00084D4F543A1C
:1055D000205A65726F20656C65632E20616E676C62
:1055E000653A200A00000000ED80000806810008EE
:1055F0002DE9FE4F8A460446FEF78EFCA046029037
:1056000058F80C9FD8F86011D8F84C70401A02F086
:1056100023FA494902F09CFA4FF07C51064602F009
:1056200061F80028354630464FF000014FF0000B7E
:105630001CBF41F26F25C3F6832502F061F80028F4
:1056400038461CBF41F26F25C3F6832500972946D3
:1056500002F07EFA074650464946CDF8049002F023
:10566000C9FB064627F0004120F0004002F048F850
:1056700000BB3046002102F04AF8074630460021C0
:1056800002F030F80146002818BF4FF07E51002F7D
:105690001CBF0021CBF68071DDF800B02BF000407C
:1056A00002F056FA294602F053FA0146019801F039
:1056B000A9FF8246C8F800A0C4F814B01F49256CA1
:1056C000266D284602F000F808BB616D676B28461E
:1056D00002F03EFA27F00049494601F093FF86F0B8
:1056E00000478346394602F012F838B95846314629
:1056F00001F0F8FF0028374608BF5F4638464946A4
:1057000002F078FB294602F05DF8206300E037469E
:10571000029D5046FEF782FB616CFEF791FB03464B
:1057200020683946002286692046B047C4F86C518B
:10573000384603B0BDE8F08FBD37863500E440C67B
:105740002DE9F04F85B0824600F5AC7B00F5AE74D4
:1057500000F5B0700D4602909AF85E00022863D3FF
:1057600000F0EE80032840F0A081E949184601943A
:1057700001F048FFFEF752FBE64902F023F8E64944
:1057800002F0E6F902F014F907469AF85F002E4697
:1057900038B1DAF854014FF07C51C06802F0D8F902
:1057A0000646DE4A07EB470152F8210002EB810171
:1057B000D1E90178002800F02F8102F035F929465F
:1057C00002F0C6F90146304601F01CFF002FCBF86D
:1057D000000000F054813846CDF800B002F024F902
:1057E000294602F0B5F90146304601F00BFF019958
:1057F0002F460AF5AA79B8F1000F0860DAF854418B
:10580000256800F06C81404602F00EF9394602F03E
:105810009FF90146304601F0F5FE0299012201236D
:1058200008602046012160E1164603A904AA184633
:10583000FEF774FB039F3146384602F089F9D846DB
:10584000A346049C81462946204602F081F9494638
:1058500001F0D8FE8146CAF868012046314602F0C0
:1058600077F904463846294602F072F90146204687
:1058700002F0C0FA4FF07C51CAF864010446CDF83A
:105880000080C8F8000002F063F9A04906464846C7
:1058900002F05EF93146054602F0ACFA8046CBF8DC
:1058A000000020464FF03F41CDF804B002F050F91F
:1058B000294602F09FFA074602984FF07C51076094
:1058C000DAF85401C06802F043F906469AF85E001F
:1058D0000AF5AA7901281CD14046394601F0FFFAA1
:1058E0000146204601F0FBFA05464046394601F0E4
:1058F000E2FA0146204601F0DEFA294601F082FE76
:105900004FF03F4102F024F90146304601F07AFEA3
:1059100006469AF85F00002860D02046314601F024
:1059200071FEDDF800B03146CBF80000404601F0D2
:1059300069FE019C31462060384601F063FE68E054
:105940007349184601F05EFEFEF768FAFD4901F062
:1059500039FF734902F0FCF802F02AF807469AF87A
:105960005F00A8462E4638B1DAF854014FF07C515A
:10597000C06802F0EDF806466A4A07EB470152F8A4
:10598000210002EB81056F68002858D002F04CF826
:10599000414602F0DDF80146304601F033FECBF817
:1059A00000000AF5AA70002FCDF800B0DAF8549183
:1059B0000190D9F800A07BD0384602F035F8414676
:1059C00002F0C6F80146304601F01CFE2060029845
:1059D000012101220023066048467AE0404639460C
:1059E00001F07DFA0146204601F079FA054620468D
:1059F000294602F0FFF9DDF800B02946CBF8000097
:105A0000404602F0F7F9019C29462060384602F032
:105A1000F1F9029908606CE03846CBF8006002F0BA
:105A200003F8294602F094F80146304601F0EAFDF9
:105A3000019C2060404601F0F7FF294610E03846FF
:105A4000CBF8006001F0F0FF414602F081F801461A
:105A5000304601F0D7FD2060A86801F0E5FF41461F
:105A600002F076F80146304601F0CCFD02990122A1
:105A70000860DAF8540101680F69002113E0019C05
:105A80004046266001F0D0FF294602F061F8014649
:105A9000304601F0B7FD029900220860DAF854019F
:105AA00001680F6901210123B8470AF5AA7920E0AE
:105AB0002660A86801F0B8FF414602F049F80146A7
:105AC000304601F09FFD02990022012308604846FC
:105AD0000121DAF81070B847DDE900B909E0029851
